{
  "_format": "hh-sol-artifact-1",
  "contractName": "Token",
  "sourceName": "contracts/Token.sol",
  "abi": [
    {
      "inputs": [],
      "stateMutability": "nonpayable",
      "type": "constructor"
    },
    {
      "anonymous": false,
      "inputs": [
        {
          "indexed": true,
          "internalType": "address",
          "name": "_from",
          "type": "address"
        },
        {
          "indexed": true,
          "internalType": "address",
          "name": "_to",
          "type": "address"
        },
        {
          "indexed": false,
          "internalType": "uint256",
          "name": "_value",
          "type": "uint256"
        }
      ],
      "name": "Transfer",
      "type": "event"
    },
    {
      "inputs": [
        {
          "internalType": "address",
          "name": "account",
          "type": "address"
        }
      ],
      "name": "balanceOf",
      "outputs": [
        {
          "internalType": "uint256",
          "name": "",
          "type": "uint256"
        }
      ],
      "stateMutability": "view",
      "type": "function"
    },
    {
      "inputs": [],
      "name": "name",
      "outputs": [
        {
          "internalType": "string",
          "name": "",
          "type": "string"
        }
      ],
      "stateMutability": "view",
      "type": "function"
    },
    {
      "inputs": [],
      "name": "symbol",
      "outputs": [
        {
          "internalType": "string",
          "name": "",
          "type": "string"
        }
      ],
      "stateMutability": "view",
      "type": "function"
    },
    {
      "inputs": [],
      "name": "totalSupply",
      "outputs": [
        {
          "internalType": "uint256",
          "name": "",
          "type": "uint256"
        }
      ],
      "stateMutability": "view",
      "type": "function"
    },
    {
      "inputs": [
        {
          "internalType": "address",
          "name": "to",
          "type": "address"
        },
        {
          "internalType": "uint256",
          "name": "amount",
          "type": "uint256"
        }
      ],
      "name": "transfer",
      "outputs": [],
      "stateMutability": "nonpayable",
      "type": "function"
    }
  ],
  "bytecode": "0x60806040526040518060400160405280601081526020017f4d79204861726468617420546f6b656e00000000000000000000000000000000815250600090816200004a919062000373565b506040518060400160405280600381526020017f4d485400000000000000000000000000000000000000000000000000000000008152506001908162000091919062000373565b50620f4240600255348015620000a657600080fd5b50600254600360003373ffffffffffffffffffffffffffffffffffffffff1673ffffffffffffffffffffffffffffffffffffffff168152602001908152602001600020819055506000339050506200045a565b600081519050919050565b7f4e487b7100000000000000000000000000000000000000000000000000000000600052604160045260246000fd5b7f4e487b7100000000000000000000000000000000000000000000000000000000600052602260045260246000fd5b600060028204905060018216806200017b57607f821691505b60208210810362000191576200019062000133565b5b50919050565b60008190508160005260206000209050919050565b60006020601f8301049050919050565b600082821b905092915050565b600060088302620001fb7fffffffffffffffffffffffffffffffffffffffffffffffffffffffffffffffff82620001bc565b620002078683620001bc565b95508019841693508086168417925050509392505050565b6000819050919050565b6000819050919050565b6000620002546200024e62000248846200021f565b62000229565b6200021f565b9050919050565b6000819050919050565b620002708362000233565b620002886200027f826200025b565b848454620001c9565b825550505050565b600090565b6200029f62000290565b620002ac81848462000265565b505050565b5b81811015620002d457620002c860008262000295565b600181019050620002b2565b5050565b601f8211156200032357620002ed8162000197565b620002f884620001ac565b8101602085101562000308578190505b620003206200031785620001ac565b830182620002b1565b50505b505050565b600082821c905092915050565b6000620003486000198460080262000328565b1980831691505092915050565b600062000363838362000335565b9150826002028217905092915050565b6200037e82620000f9565b67ffffffffffffffff8111156200039a576200039962000104565b5b620003a6825462000162565b620003b3828285620002d8565b600060209050601f831160018114620003eb5760008415620003d6578287015190505b620003e2858262000355565b86555062000452565b601f198416620003fb8662000197565b60005b828110156200042557848901518255600182019150602085019450602081019050620003fe565b8683101562000445578489015162000441601f89168262000335565b8355505b6001600288020188555050505b505050505050565b61077f806200046a6000396000f3fe608060405234801561001057600080fd5b50600436106100575760003560e01c806306fdde031461005c57806318160ddd1461007a57806370a082311461009857806395d89b41146100c8578063a9059cbb146100e6575b600080fd5b610064610102565b6040516100719190610494565b60405180910390f35b610082610190565b60405161008f91906104cf565b60405180910390f35b6100b260048036038101906100ad919061054d565b610196565b6040516100bf91906104cf565b60405180910390f35b6100d06101df565b6040516100dd9190610494565b60405180910390f35b61010060048036038101906100fb91906105a6565b61026d565b005b6000805461010f90610615565b80601f016020809104026020016040519081016040528092919081815260200182805461013b90610615565b80156101885780601f1061015d57610100808354040283529160200191610188565b820191906000526020600020905b81548152906001019060200180831161016b57829003601f168201915b505050505081565b60025481565b6000600360008373ffffffffffffffffffffffffffffffffffffffff1673ffffffffffffffffffffffffffffffffffffffff168152602001908152602001600020549050919050565b600180546101ec90610615565b80601f016020809104026020016040519081016040528092919081815260200182805461021890610615565b80156102655780601f1061023a57610100808354040283529160200191610265565b820191906000526020600020905b81548152906001019060200180831161024857829003601f168201915b505050505081565b80600360003373ffffffffffffffffffffffffffffffffffffffff1673ffffffffffffffffffffffffffffffffffffffff1681526020019081526020016000205410156102ef576040517f08c379a00000000000000000000000000000000000000000000000000000000081526004016102e690610692565b60405180910390fd5b80600360003373ffffffffffffffffffffffffffffffffffffffff1673ffffffffffffffffffffffffffffffffffffffff168152602001908152602001600020600082825461033e91906106e1565b9250508190555080600360008473ffffffffffffffffffffffffffffffffffffffff1673ffffffffffffffffffffffffffffffffffffffff16815260200190815260200160002060008282546103949190610715565b925050819055508173ffffffffffffffffffffffffffffffffffffffff163373ffffffffffffffffffffffffffffffffffffffff167fddf252ad1be2c89b69c2b068fc378daa952ba7f163c4a11628f55a4df523b3ef836040516103f891906104cf565b60405180910390a35050565b600081519050919050565b600082825260208201905092915050565b60005b8381101561043e578082015181840152602081019050610423565b60008484015250505050565b6000601f19601f8301169050919050565b600061046682610404565b610470818561040f565b9350610480818560208601610420565b6104898161044a565b840191505092915050565b600060208201905081810360008301526104ae818461045b565b905092915050565b6000819050919050565b6104c9816104b6565b82525050565b60006020820190506104e460008301846104c0565b92915050565b600080fd5b600073ffffffffffffffffffffffffffffffffffffffff82169050919050565b600061051a826104ef565b9050919050565b61052a8161050f565b811461053557600080fd5b50565b60008135905061054781610521565b92915050565b600060208284031215610563576105626104ea565b5b600061057184828501610538565b91505092915050565b610583816104b6565b811461058e57600080fd5b50565b6000813590506105a08161057a565b92915050565b600080604083850312156105bd576105bc6104ea565b5b60006105cb85828601610538565b92505060206105dc85828601610591565b9150509250929050565b7f4e487b7100000000000000000000000000000000000000000000000000000000600052602260045260246000fd5b6000600282049050600182168061062d57607f821691505b6020821081036106405761063f6105e6565b5b50919050565b7f4e6f7420656e6f75676820746f6b656e73000000000000000000000000000000600082015250565b600061067c60118361040f565b915061068782610646565b602082019050919050565b600060208201905081810360008301526106ab8161066f565b9050919050565b7f4e487b7100000000000000000000000000000000000000000000000000000000600052601160045260246000fd5b60006106ec826104b6565b91506106f7836104b6565b925082820390508181111561070f5761070e6106b2565b5b92915050565b6000610720826104b6565b915061072b836104b6565b9250828201905080821115610743576107426106b2565b5b9291505056fea2646970667358221220d36591a60ab590b6bcf6e32cc14992243564872456de5f960fe624c6c94ce4e864736f6c63430008130033",
  "linkReferences": {},
  "deployedLinkReferences": {}
}